{
    "contractName": "KyberNetwork",
    "abi": [
        {
            "constant": false,
            "inputs": [
                {
                    "internalType": "address",
                    "name": "alerter",
                    "type": "address"
                }
            ],
            "name": "removeAlerter",
            "outputs": [],
            "payable": false,
            "stateMutability": "nonpayable",
            "type": "function"
        },
        {
            "constant": true,
            "inputs": [
                {
                    "internalType": "address",
                    "name": "",
                    "type": "address"
                }
            ],
            "name": "reserveRebateWallet",
            "outputs": [
                {
                    "internalType": "address",
                    "name": "",
                    "type": "address"
                }
            ],
            "payable": false,
            "stateMutability": "view",
            "type": "function"
        },
        {
            "constant": true,
            "inputs": [],
            "name": "matchingEngine",
            "outputs": [
                {
                    "internalType": "contract IKyberMatchingEngine",
                    "name": "",
                    "type": "address"
                }
            ],
            "payable": false,
            "stateMutability": "view",
            "type": "function"
        },
        {
            "constant": true,
            "inputs": [],
            "name": "enabled",
            "outputs": [
                {
                    "internalType": "bool",
                    "name": "",
                    "type": "bool"
                }
            ],
            "payable": false,
            "stateMutability": "view",
            "type": "function"
        },
        {
            "constant": false,
            "inputs": [
                {
                    "internalType": "address",
                    "name": "reserve",
                    "type": "address"
                },
                {
                    "internalType": "uint256",
                    "name": "startIndex",
                    "type": "uint256"
                }
            ],
            "name": "removeReserve",
            "outputs": [
                {
                    "internalType": "bool",
                    "name": "",
                    "type": "bool"
                }
            ],
            "payable": false,
            "stateMutability": "nonpayable",
            "type": "function"
        },
        {
            "constant": true,
            "inputs": [],
            "name": "pendingAdmin",
            "outputs": [
                {
                    "internalType": "address",
                    "name": "",
                    "type": "address"
                }
            ],
            "payable": false,
            "stateMutability": "view",
            "type": "function"
        },
        {
            "constant": true,
            "inputs": [],
            "name": "getOperators",
            "outputs": [
                {
                    "internalType": "address[]",
                    "name": "",
                    "type": "address[]"
                }
            ],
            "payable": false,
            "stateMutability": "view",
            "type": "function"
        },
        {
            "constant": true,
            "inputs": [],
            "name": "feeHandler",
            "outputs": [
                {
                    "internalType": "contract IKyberFeeHandler",
                    "name": "",
                    "type": "address"
                }
            ],
            "payable": false,
            "stateMutability": "view",
            "type": "function"
        },
        {
            "constant": false,
            "inputs": [
                {
                    "internalType": "contract IERC20",
                    "name": "token",
                    "type": "address"
                },
                {
                    "internalType": "uint256",
                    "name": "amount",
                    "type": "uint256"
                },
                {
                    "internalType": "address",
                    "name": "sendTo",
                    "type": "address"
                }
            ],
            "name": "withdrawToken",
            "outputs": [],
            "payable": false,
            "stateMutability": "nonpayable",
            "type": "function"
        },
        {
            "constant": true,
            "inputs": [],
            "name": "maxGasPrice",
            "outputs": [
                {
                    "internalType": "uint256",
                    "name": "",
                    "type": "uint256"
                }
            ],
            "payable": false,
            "stateMutability": "view",
            "type": "function"
        },
        {
            "constant": false,
            "inputs": [
                {
                    "internalType": "address",
                    "name": "reserve",
                    "type": "address"
                },
                {
                    "internalType": "bytes32",
                    "name": "reserveId",
                    "type": "bytes32"
                },
                {
                    "internalType": "enum IKyberMatchingEngine.ReserveType",
                    "name": "reserveType",
                    "type": "uint8"
                },
                {
                    "internalType": "address payable",
                    "name": "rebateWallet",
                    "type": "address"
                }
            ],
            "name": "addReserve",
            "outputs": [
                {
                    "internalType": "bool",
                    "name": "",
                    "type": "bool"
                }
            ],
            "payable": false,
            "stateMutability": "nonpayable",
            "type": "function"
        },
        {
            "constant": false,
            "inputs": [
                {
                    "internalType": "address",
                    "name": "newAlerter",
                    "type": "address"
                }
            ],
            "name": "addAlerter",
            "outputs": [],
            "payable": false,
            "stateMutability": "nonpayable",
            "type": "function"
        },
        {
            "constant": false,
            "inputs": [
                {
                    "internalType": "contract IKyberDAO",
                    "name": "_kyberDAO",
                    "type": "address"
                }
            ],
            "name": "setDAOContract",
            "outputs": [],
            "payable": false,
            "stateMutability": "nonpayable",
            "type": "function"
        },
        {
            "constant": false,
            "inputs": [
                {
                    "internalType": "address",
                    "name": "networkProxy",
                    "type": "address"
                }
            ],
            "name": "addKyberProxy",
            "outputs": [],
            "payable": false,
            "stateMutability": "nonpayable",
            "type": "function"
        },
        {
            "constant": false,
            "inputs": [
                {
                    "internalType": "address",
                    "name": "newAdmin",
                    "type": "address"
                }
            ],
            "name": "transferAdmin",
            "outputs": [],
            "payable": false,
            "stateMutability": "nonpayable",
            "type": "function"
        },
        {
            "constant": false,
            "inputs": [
                {
                    "internalType": "bool",
                    "name": "_enable",
                    "type": "bool"
                }
            ],
            "name": "setEnable",
            "outputs": [],
            "payable": false,
            "stateMutability": "nonpayable",
            "type": "function"
        },
        {
            "constant": false,
            "inputs": [],
            "name": "claimAdmin",
            "outputs": [],
            "payable": false,
            "stateMutability": "nonpayable",
            "type": "function"
        },
        {
            "constant": false,
            "inputs": [
                {
                    "internalType": "address",
                    "name": "newAdmin",
                    "type": "address"
                }
            ],
            "name": "transferAdminQuickly",
            "outputs": [],
            "payable": false,
            "stateMutability": "nonpayable",
            "type": "function"
        },
        {
            "constant": true,
            "inputs": [],
            "name": "getAlerters",
            "outputs": [
                {
                    "internalType": "address[]",
                    "name": "",
                    "type": "address[]"
                }
            ],
            "payable": false,
            "stateMutability": "view",
            "type": "function"
        },
        {
            "constant": false,
            "inputs": [
                {
                    "internalType": "address",
                    "name": "networkProxy",
                    "type": "address"
                }
            ],
            "name": "removeKyberProxy",
            "outputs": [],
            "payable": false,
            "stateMutability": "nonpayable",
            "type": "function"
        },
        {
            "constant": true,
            "inputs": [],
            "name": "getNetworkData",
            "outputs": [
                {
                    "internalType": "uint256",
                    "name": "negligibleDiffBps",
                    "type": "uint256"
                },
                {
                    "internalType": "uint256",
                    "name": "networkFeeBps",
                    "type": "uint256"
                },
                {
                    "internalType": "uint256",
                    "name": "expiryBlock",
                    "type": "uint256"
                }
            ],
            "payable": false,
            "stateMutability": "view",
            "type": "function"
        },
        {
            "constant": true,
            "inputs": [
                {
                    "internalType": "contract IERC20",
                    "name": "src",
                    "type": "address"
                },
                {
                    "internalType": "contract IERC20",
                    "name": "dest",
                    "type": "address"
                },
                {
                    "internalType": "uint256",
                    "name": "srcQty",
                    "type": "uint256"
                },
                {
                    "internalType": "uint256",
                    "name": "platformFeeBps",
                    "type": "uint256"
                },
                {
                    "internalType": "bytes",
                    "name": "hint",
                    "type": "bytes"
                }
            ],
            "name": "getExpectedRateWithHintAndFee",
            "outputs": [
                {
                    "internalType": "uint256",
                    "name": "rateWithoutFees",
                    "type": "uint256"
                },
                {
                    "internalType": "uint256",
                    "name": "rateWithNetworkFee",
                    "type": "uint256"
                },
                {
                    "internalType": "uint256",
                    "name": "rateWithAllFees",
                    "type": "uint256"
                }
            ],
            "payable": false,
            "stateMutability": "view",
            "type": "function"
        },
        {
            "constant": false,
            "inputs": [
                {
                    "internalType": "address",
                    "name": "newOperator",
                    "type": "address"
                }
            ],
            "name": "addOperator",
            "outputs": [],
            "payable": false,
            "stateMutability": "nonpayable",
            "type": "function"
        },
        {
            "constant": true,
            "inputs": [],
            "name": "kyberStorage",
            "outputs": [
                {
                    "internalType": "contract IKyberStorage",
                    "name": "",
                    "type": "address"
                }
            ],
            "payable": false,
            "stateMutability": "view",
            "type": "function"
        },
        {
            "constant": false,
            "inputs": [
                {
                    "internalType": "contract IKyberStorage",
                    "name": "_kyberStorage",
                    "type": "address"
                }
            ],
            "name": "setKyberStorage",
            "outputs": [],
            "payable": false,
            "stateMutability": "nonpayable",
            "type": "function"
        },
        {
            "constant": false,
            "inputs": [
                {
                    "internalType": "address",
                    "name": "operator",
                    "type": "address"
                }
            ],
            "name": "removeOperator",
            "outputs": [],
            "payable": false,
            "stateMutability": "nonpayable",
            "type": "function"
        },
        {
            "constant": false,
            "inputs": [
                {
                    "internalType": "contract IKyberFeeHandler",
                    "name": "_feeHandler",
                    "type": "address"
                },
                {
                    "internalType": "contract IKyberMatchingEngine",
                    "name": "_matchingEngine",
                    "type": "address"
                },
                {
                    "internalType": "contract IGasHelper",
                    "name": "_gasHelper",
                    "type": "address"
                }
            ],
            "name": "setContracts",
            "outputs": [],
            "payable": false,
            "stateMutability": "nonpayable",
            "type": "function"
        },
        {
            "constant": false,
            "inputs": [
                {
                    "internalType": "uint256",
                    "name": "_maxGasPrice",
                    "type": "uint256"
                },
                {
                    "internalType": "uint256",
                    "name": "_negligibleRateDiffBps",
                    "type": "uint256"
                }
            ],
            "name": "setParams",
            "outputs": [],
            "payable": false,
            "stateMutability": "nonpayable",
            "type": "function"
        },
        {
            "constant": false,
            "inputs": [
                {
                    "internalType": "address payable",
                    "name": "trader",
                    "type": "address"
                },
                {
                    "internalType": "contract IERC20",
                    "name": "src",
                    "type": "address"
                },
                {
                    "internalType": "uint256",
                    "name": "srcAmount",
                    "type": "uint256"
                },
                {
                    "internalType": "contract IERC20",
                    "name": "dest",
                    "type": "address"
                },
                {
                    "internalType": "address payable",
                    "name": "destAddress",
                    "type": "address"
                },
                {
                    "internalType": "uint256",
                    "name": "maxDestAmount",
                    "type": "uint256"
                },
                {
                    "internalType": "uint256",
                    "name": "minConversionRate",
                    "type": "uint256"
                },
                {
                    "internalType": "address payable",
                    "name": "platformWallet",
                    "type": "address"
                },
                {
                    "internalType": "uint256",
                    "name": "platformFeeBps",
                    "type": "uint256"
                },
                {
                    "internalType": "bytes",
                    "name": "hint",
                    "type": "bytes"
                }
            ],
            "name": "tradeWithHintAndFee",
            "outputs": [
                {
                    "internalType": "uint256",
                    "name": "destAmount",
                    "type": "uint256"
                }
            ],
            "payable": true,
            "stateMutability": "payable",
            "type": "function"
        },
        {
            "constant": true,
            "inputs": [],
            "name": "kyberDAO",
            "outputs": [
                {
                    "internalType": "contract IKyberDAO",
                    "name": "",
                    "type": "address"
                }
            ],
            "payable": false,
            "stateMutability": "view",
            "type": "function"
        },
        {
            "constant": false,
            "inputs": [
                {
                    "internalType": "uint256",
                    "name": "amount",
                    "type": "uint256"
                },
                {
                    "internalType": "address payable",
                    "name": "sendTo",
                    "type": "address"
                }
            ],
            "name": "withdrawEther",
            "outputs": [],
            "payable": false,
            "stateMutability": "nonpayable",
            "type": "function"
        },
        {
            "constant": false,
            "inputs": [],
            "name": "getAndUpdateNetworkFee",
            "outputs": [
                {
                    "internalType": "uint256",
                    "name": "networkFeeBps",
                    "type": "uint256"
                }
            ],
            "payable": false,
            "stateMutability": "nonpayable",
            "type": "function"
        },
        {
            "constant": false,
            "inputs": [
                {
                    "internalType": "address",
                    "name": "reserve",
                    "type": "address"
                },
                {
                    "internalType": "contract IERC20",
                    "name": "token",
                    "type": "address"
                },
                {
                    "internalType": "bool",
                    "name": "ethToToken",
                    "type": "bool"
                },
                {
                    "internalType": "bool",
                    "name": "tokenToEth",
                    "type": "bool"
                },
                {
                    "internalType": "bool",
                    "name": "add",
                    "type": "bool"
                }
            ],
            "name": "listPairForReserve",
            "outputs": [
                {
                    "internalType": "bool",
                    "name": "",
                    "type": "bool"
                }
            ],
            "payable": false,
            "stateMutability": "nonpayable",
            "type": "function"
        },
        {
            "constant": true,
            "inputs": [
                {
                    "internalType": "bytes32",
                    "name": "",
                    "type": "bytes32"
                }
            ],
            "name": "reserveIdToAddress",
            "outputs": [
                {
                    "internalType": "address",
                    "name": "",
                    "type": "address"
                }
            ],
            "payable": false,
            "stateMutability": "view",
            "type": "function"
        },
        {
            "constant": true,
            "inputs": [],
            "name": "admin",
            "outputs": [
                {
                    "internalType": "address",
                    "name": "",
                    "type": "address"
                }
            ],
            "payable": false,
            "stateMutability": "view",
            "type": "function"
        },
        {
            "constant": false,
            "inputs": [
                {
                    "internalType": "address",
                    "name": "reserve",
                    "type": "address"
                }
            ],
            "name": "rmReserve",
            "outputs": [
                {
                    "internalType": "bool",
                    "name": "",
                    "type": "bool"
                }
            ],
            "payable": false,
            "stateMutability": "nonpayable",
            "type": "function"
        },
        {
            "inputs": [
                {
                    "internalType": "address",
                    "name": "_admin",
                    "type": "address"
                }
            ],
            "payable": false,
            "stateMutability": "nonpayable",
            "type": "constructor"
        },
        {
            "payable": true,
            "stateMutability": "payable",
            "type": "fallback"
        },
        {
            "anonymous": false,
            "inputs": [
                {
                    "indexed": true,
                    "internalType": "address",
                    "name": "sender",
                    "type": "address"
                },
                {
                    "indexed": false,
                    "internalType": "uint256",
                    "name": "amount",
                    "type": "uint256"
                }
            ],
            "name": "EtherReceival",
            "type": "event"
        },
        {
            "anonymous": false,
            "inputs": [
                {
                    "indexed": true,
                    "internalType": "address",
                    "name": "reserve",
                    "type": "address"
                },
                {
                    "indexed": true,
                    "internalType": "bytes32",
                    "name": "reserveId",
                    "type": "bytes32"
                },
                {
                    "indexed": false,
                    "internalType": "enum IKyberMatchingEngine.ReserveType",
                    "name": "reserveType",
                    "type": "uint8"
                },
                {
                    "indexed": true,
                    "internalType": "address",
                    "name": "rebateWallet",
                    "type": "address"
                },
                {
                    "indexed": false,
                    "internalType": "bool",
                    "name": "add",
                    "type": "bool"
                }
            ],
            "name": "AddReserveToNetwork",
            "type": "event"
        },
        {
            "anonymous": false,
            "inputs": [
                {
                    "indexed": false,
                    "internalType": "address",
                    "name": "reserve",
                    "type": "address"
                },
                {
                    "indexed": true,
                    "internalType": "bytes32",
                    "name": "reserveId",
                    "type": "bytes32"
                }
            ],
            "name": "RemoveReserveFromNetwork",
            "type": "event"
        },
        {
            "anonymous": false,
            "inputs": [
                {
                    "indexed": true,
                    "internalType": "address",
                    "name": "reserve",
                    "type": "address"
                },
                {
                    "indexed": false,
                    "internalType": "contract IERC20",
                    "name": "src",
                    "type": "address"
                },
                {
                    "indexed": false,
                    "internalType": "contract IERC20",
                    "name": "dest",
                    "type": "address"
                },
                {
                    "indexed": false,
                    "internalType": "bool",
                    "name": "add",
                    "type": "bool"
                }
            ],
            "name": "ListReservePairs",
            "type": "event"
        },
        {
            "anonymous": false,
            "inputs": [
                {
                    "indexed": false,
                    "internalType": "contract IKyberFeeHandler",
                    "name": "newHandler",
                    "type": "address"
                }
            ],
            "name": "FeeHandlerUpdated",
            "type": "event"
        },
        {
            "anonymous": false,
            "inputs": [
                {
                    "indexed": false,
                    "internalType": "contract IKyberMatchingEngine",
                    "name": "matchingEngine",
                    "type": "address"
                }
            ],
            "name": "MatchingEngineUpdated",
            "type": "event"
        },
        {
            "anonymous": false,
            "inputs": [
                {
                    "indexed": false,
                    "internalType": "contract IGasHelper",
                    "name": "gasHelper",
                    "type": "address"
                }
            ],
            "name": "GasHelperUpdated",
            "type": "event"
        },
        {
            "anonymous": false,
            "inputs": [
                {
                    "indexed": false,
                    "internalType": "contract IKyberDAO",
                    "name": "newDAO",
                    "type": "address"
                }
            ],
            "name": "KyberDAOUpdated",
            "type": "event"
        },
        {
            "anonymous": false,
            "inputs": [
                {
                    "indexed": false,
                    "internalType": "uint256",
                    "name": "maxGasPrice",
                    "type": "uint256"
                },
                {
                    "indexed": false,
                    "internalType": "uint256",
                    "name": "negligibleRateDiffBps",
                    "type": "uint256"
                }
            ],
            "name": "KyberNetworkParamsSet",
            "type": "event"
        },
        {
            "anonymous": false,
            "inputs": [
                {
                    "indexed": false,
                    "internalType": "contract IKyberStorage",
                    "name": "newStorage",
                    "type": "address"
                }
            ],
            "name": "KyberStorageUpdated",
            "type": "event"
        },
        {
            "anonymous": false,
            "inputs": [
                {
                    "indexed": false,
                    "internalType": "bool",
                    "name": "isEnabled",
                    "type": "bool"
                }
            ],
            "name": "KyberNetworkSetEnable",
            "type": "event"
        },
        {
            "anonymous": false,
            "inputs": [
                {
                    "indexed": false,
                    "internalType": "address",
                    "name": "proxy",
                    "type": "address"
                }
            ],
            "name": "KyberProxyAdded",
            "type": "event"
        },
        {
            "anonymous": false,
            "inputs": [
                {
                    "indexed": false,
                    "internalType": "address",
                    "name": "proxy",
                    "type": "address"
                }
            ],
            "name": "KyberProxyRemoved",
            "type": "event"
        },
        {
            "anonymous": false,
            "inputs": [
                {
                    "indexed": true,
                    "internalType": "address",
                    "name": "trader",
                    "type": "address"
                },
                {
                    "indexed": false,
                    "internalType": "contract IERC20",
                    "name": "src",
                    "type": "address"
                },
                {
                    "indexed": false,
                    "internalType": "contract IERC20",
                    "name": "dest",
                    "type": "address"
                },
                {
                    "indexed": false,
                    "internalType": "uint256",
                    "name": "srcAmount",
                    "type": "uint256"
                },
                {
                    "indexed": false,
                    "internalType": "uint256",
                    "name": "dstAmount",
                    "type": "uint256"
                },
                {
                    "indexed": false,
                    "internalType": "address",
                    "name": "destAddress",
                    "type": "address"
                },
                {
                    "indexed": false,
                    "internalType": "uint256",
                    "name": "ethWeiValue",
                    "type": "uint256"
                },
                {
                    "indexed": false,
                    "internalType": "uint256",
                    "name": "networkFeeWei",
                    "type": "uint256"
                },
                {
                    "indexed": false,
                    "internalType": "uint256",
                    "name": "customPlatformFeeWei",
                    "type": "uint256"
                },
                {
                    "indexed": false,
                    "internalType": "bytes32[]",
                    "name": "t2eIds",
                    "type": "bytes32[]"
                },
                {
                    "indexed": false,
                    "internalType": "bytes32[]",
                    "name": "e2tIds",
                    "type": "bytes32[]"
                },
                {
                    "indexed": false,
                    "internalType": "bytes",
                    "name": "hint",
                    "type": "bytes"
                }
            ],
            "name": "KyberTrade",
            "type": "event"
        },
        {
            "anonymous": false,
            "inputs": [
                {
                    "indexed": false,
                    "internalType": "contract IERC20",
                    "name": "token",
                    "type": "address"
                },
                {
                    "indexed": false,
                    "internalType": "uint256",
                    "name": "amount",
                    "type": "uint256"
                },
                {
                    "indexed": false,
                    "internalType": "address",
                    "name": "sendTo",
                    "type": "address"
                }
            ],
            "name": "TokenWithdraw",
            "type": "event"
        },
        {
            "anonymous": false,
            "inputs": [
                {
                    "indexed": false,
                    "internalType": "uint256",
                    "name": "amount",
                    "type": "uint256"
                },
                {
                    "indexed": false,
                    "internalType": "address",
                    "name": "sendTo",
                    "type": "address"
                }
            ],
            "name": "EtherWithdraw",
            "type": "event"
        },
        {
            "anonymous": false,
            "inputs": [
                {
                    "indexed": false,
                    "internalType": "address",
                    "name": "pendingAdmin",
                    "type": "address"
                }
            ],
            "name": "TransferAdminPending",
            "type": "event"
        },
        {
            "anonymous": false,
            "inputs": [
                {
                    "indexed": false,
                    "internalType": "address",
                    "name": "newAdmin",
                    "type": "address"
                },
                {
                    "indexed": false,
                    "internalType": "address",
                    "name": "previousAdmin",
                    "type": "address"
                }
            ],
            "name": "AdminClaimed",
            "type": "event"
        },
        {
            "anonymous": false,
            "inputs": [
                {
                    "indexed": false,
                    "internalType": "address",
                    "name": "newAlerter",
                    "type": "address"
                },
                {
                    "indexed": false,
                    "internalType": "bool",
                    "name": "isAdd",
                    "type": "bool"
                }
            ],
            "name": "AlerterAdded",
            "type": "event"
        },
        {
            "anonymous": false,
            "inputs": [
                {
                    "indexed": false,
                    "internalType": "address",
                    "name": "newOperator",
                    "type": "address"
                },
                {
                    "indexed": false,
                    "internalType": "bool",
                    "name": "isAdd",
                    "type": "bool"
                }
            ],
            "name": "OperatorAdded",
            "type": "event"
        }
    ],
    "bytecode": "6080604052640ba43b7400600d55600e805460ff191690553480156200002457600080fd5b5060405162005d6338038062005d63833981810160405260208110156200004a57600080fd5b505180806001600160a01b038116620000c457604080517f08c379a000000000000000000000000000000000000000000000000000000000815260206004820152600760248201527f41646d696e203000000000000000000000000000000000000000000000000000604482015290519081900360640190fd5b600080546001600160a01b0319166001600160a01b0392909216919091179055506007805460ff19166001179055620000ff43601962000106565b506200022f565b6801000000000000000082106200017e57604080517f08c379a000000000000000000000000000000000000000000000000000000000815260206004820152600f60248201527f657870697279206f766572666c6f770000000000000000000000000000000000604482015290519081900360640190fd5b6113888110620001ef57604080517f08c379a000000000000000000000000000000000000000000000000000000000815260206004820152600f60248201527f6665657320657863656564204250530000000000000000000000000000000000604482015290519081900360640190fd5b600c805461ffff909216680100000000000000000261ffff60401b196001600160401b039094166001600160401b03199093169290921792909216179055565b615b24806200023f6000396000f3fe60806040526004361061020f5760003560e01c80637c423f5411610118578063c0324c77116100a0578063dbe2dc9b1161006f578063dbe2dc9b1461090d578063e02584bf14610922578063ef9285df14610977578063f851a440146109a1578063fab4ec75146109b65761020f565b8063c0324c77146107d3578063c43190f514610803578063c5feb27f146108bf578063ce56c454146108d45761020f565b80639870d7fe116100e75780639870d7fe146106e05780639ced8aab14610713578063a0d2a85014610728578063ac8a584a1461075b578063b3066d491461078e5761020f565b80637c423f54146105c5578063803d58c8146105da5780638881654e1461060d5780638ff68a80146106405761020f565b80633de39c111161019b57806352dd35b91161016a57806352dd35b9146104eb57806375829def1461051e5780637726bed31461055157806377f50f971461057d5780637acc8678146105925761020f565b80633de39c11146104145780633dfce8951461043b578063408ee7fe14610485578063425d512a146104b85761020f565b8063249715b3116101e2578063249715b314610309578063267822471461034257806327a099d8146103575780633c93adee146103bc5780633ccdbb28146103d15761020f565b806301a12fd314610247578063022654b91461027c5780631c0edff2146102cb578063238dafe0146102e0575b60408051348152905133917f75f33ed68675112c77094e7c5b073890598be1d23e27cd7f6907b4a7d98ac619919081900360200190a2005b34801561025357600080fd5b5061027a6004803603602081101561026a57600080fd5b50356001600160a01b03166109e9565b005b34801561028857600080fd5b506102af6004803603602081101561029f57600080fd5b50356001600160a01b0316610b73565b604080516001600160a01b039092168252519081900360200190f35b3480156102d757600080fd5b506102af610b8e565b3480156102ec57600080fd5b506102f5610b9d565b604080519115158252519081900360200190f35b34801561031557600080fd5b506102f56004803603604081101561032c57600080fd5b506001600160a01b038135169060200135610ba7565b34801561034e57600080fd5b506102af610da3565b34801561036357600080fd5b5061036c610db2565b60408051602080825283518183015283519192839290830191858101910280838360005b838110156103a8578181015183820152602001610390565b505050509050019250505060405180910390f35b3480156103c857600080fd5b506102af610e14565b3480156103dd57600080fd5b5061027a600480360360608110156103f457600080fd5b506001600160a01b03813581169160208101359160409091013516610e28565b34801561042057600080fd5b50610429610f0b565b60408051918252519081900360200190f35b34801561044757600080fd5b506102f56004803603608081101561045e57600080fd5b506001600160a01b03813581169160208101359160ff604083013516916060013516610f11565b34801561049157600080fd5b5061027a600480360360208110156104a857600080fd5b50356001600160a01b03166110e5565b3480156104c457600080fd5b5061027a600480360360208110156104db57600080fd5b50356001600160a01b031661123c565b3480156104f757600080fd5b5061027a6004803603602081101561050e57600080fd5b50356001600160a01b031661137a565b34801561052a57600080fd5b5061027a6004803603602081101561054157600080fd5b50356001600160a01b031661150a565b34801561055d57600080fd5b5061027a6004803603602081101561057457600080fd5b503515156115b9565b34801561058957600080fd5b5061027a611769565b34801561059e57600080fd5b5061027a600480360360208110156105b557600080fd5b50356001600160a01b0316611829565b3480156105d157600080fd5b5061036c61191c565b3480156105e657600080fd5b5061027a600480360360208110156105fd57600080fd5b50356001600160a01b031661197c565b34801561061957600080fd5b50610622611aa6565b60408051938452602084019290925282820152519081900360600190f35b34801561064c57600080fd5b50610622600480360360a081101561066357600080fd5b6001600160a01b03823581169260208101359091169160408201359160608101359181019060a081016080820135600160201b8111156106a257600080fd5b8201836020820111156106b457600080fd5b803590602001918460018302840111600160201b831117156106d557600080fd5b509092509050611b2f565b3480156106ec57600080fd5b5061027a6004803603602081101561070357600080fd5b50356001600160a01b0316611c43565b34801561071f57600080fd5b506102af611d9c565b34801561073457600080fd5b5061027a6004803603602081101561074b57600080fd5b50356001600160a01b0316611dab565b34801561076757600080fd5b5061027a6004803603602081101561077e57600080fd5b50356001600160a01b0316611ee7565b34801561079a57600080fd5b5061027a600480360360608110156107b157600080fd5b506001600160a01b03813581169160208101358216916040909101351661206e565b3480156107df57600080fd5b5061027a600480360360408110156107f657600080fd5b50803590602001356122f7565b610429600480360361014081101561081a57600080fd5b6001600160a01b03823581169260208101358216926040820135926060830135811692608081013582169260a08201359260c08301359260e08101359091169161010082013591908101906101408101610120820135600160201b81111561088157600080fd5b82018360208201111561089357600080fd5b803590602001918460018302840111600160201b831117156108b457600080fd5b5090925090506123c8565b3480156108cb57600080fd5b506102af612436565b3480156108e057600080fd5b5061027a600480360360408110156108f757600080fd5b50803590602001356001600160a01b0316612445565b34801561091957600080fd5b506104296124f3565b34801561092e57600080fd5b506102f5600480360360a081101561094557600080fd5b506001600160a01b038135811691602081013590911690604081013515159060608101351515906080013515156125ab565b34801561098357600080fd5b506102af6004803603602081101561099a57600080fd5b5035612778565b3480156109ad57600080fd5b506102af612793565b3480156109c257600080fd5b506102f5600480360360208110156109d957600080fd5b50356001600160a01b03166127a2565b6109f16127bf565b6001600160a01b03811660009081526003602052604090205460ff16610a4c576040805162461bcd60e51b815260206004820152600b60248201526a2737ba1030b632b93a32b960a91b604482015290519081900360640190fd5b6001600160a01b0381166000908152600360205260408120805460ff191690555b600554811015610b6f57816001600160a01b031660058281548110610a8e57fe5b6000918252602090912001546001600160a01b03161415610b6757600580546000198101908110610abb57fe5b600091825260209091200154600580546001600160a01b039092169183908110610ae157fe5b600091825260209091200180546001600160a01b0319166001600160a01b03929092169190911790556005805490610b1d90600019830161597b565b50604080516001600160a01b03841681526000602082015281517f5611bf3e417d124f97bf2c788843ea8bb502b66079fbee02158ef30b172cb762929181900390910190a1610b6f565b600101610a6d565b5050565b6011602052600090815260409020546001600160a01b031681565b6009546001600160a01b031681565b600e5460ff165b90565b6000610bb161280d565b600a546040805163249715b360e01b81526001600160a01b038681166004830152602482018690529151600093929092169163249715b39160448082019260209290919082900301818787803b158015610c0a57600080fd5b505af1158015610c1e573d6000803e3d6000fd5b505050506040513d6020811015610c3457600080fd5b50516009546040805163b32bf86b60e01b81526004810184905290519293506001600160a01b039091169163b32bf86b916024808201926020929091908290030181600087803b158015610c8757600080fd5b505af1158015610c9b573d6000803e3d6000fd5b505050506040513d6020811015610cb157600080fd5b5051610cbc57600080fd5b6000818152601060205260409020546001600160a01b03858116911614610d2a576040805162461bcd60e51b815260206004820152601760248201527f7265736572766520616e64206964206d69736d61746368000000000000000000604482015290519081900360640190fd5b600081815260106020908152604080832080546001600160a01b03199081169091556001600160a01b03881680855260118452938290208054909116905580519283525183927fee8290bd0f73b8288689952d090f17485ec0265dc10480639d23dfe3e6a4eb9d92908290030190a25060019392505050565b6001546001600160a01b031681565b60606004805480602002602001604051908101604052809291908181526020018280548015610e0a57602002820191906000526020600020905b81546001600160a01b03168152600190910190602001808311610dec575b5050505050905090565b60075461010090046001600160a01b031681565b610e306127bf565b826001600160a01b031663a9059cbb82846040518363ffffffff1660e01b815260040180836001600160a01b03166001600160a01b0316815260200182815260200192505050602060405180830381600087803b158015610e9057600080fd5b505af1158015610ea4573d6000803e3d6000fd5b505050506040513d6020811015610eba57600080fd5b5050604080516001600160a01b0380861682526020820185905283168183015290517f72cb8a894ddb372ceec3d2a7648d86f17d5a15caae0e986c53109b8a9a9385e69181900360600190a1505050565b600d5490565b6000610f1b61280d565b600a546040805163dc62f27160e01b81526001600160a01b038881166004830152602482018890529151919092169163dc62f2719160448083019260209291908290030181600087803b158015610f7157600080fd5b505af1158015610f85573d6000803e3d6000fd5b505050506040513d6020811015610f9b57600080fd5b5051610fa657600080fd5b600954604051630abab3c560e41b8152600481018681526001600160a01b039092169163abab3c509187918791602401826007811115610fe257fe5b60ff16815260200192505050602060405180830381600087803b15801561100857600080fd5b505af115801561101c573d6000803e3d6000fd5b505050506040513d602081101561103257600080fd5b505161103d57600080fd5b600084815260106020908152604080832080546001600160a01b03808b166001600160a01b03199283168117909355828652601190945293829020805493871693909416831790935551909186917f3e4bf789d16275b795bbc6f7e258d71871ae14caed4e10de67f97afc14e8a2c9908790600190808360078111156110bf57fe5b60ff1681529115156020830152506040805191829003019150a45060015b949350505050565b6110ed6127bf565b6001600160a01b03811660009081526003602052604090205460ff161561114c576040805162461bcd60e51b815260206004820152600e60248201526d416c65727465722065786973747360901b604482015290519081900360640190fd5b600554603211611192576040805162461bcd60e51b815260206004820152600c60248201526b4d617820616c65727465727360a01b604482015290519081900360640190fd5b604080516001600160a01b03831681526001602082015281517f5611bf3e417d124f97bf2c788843ea8bb502b66079fbee02158ef30b172cb762929181900390910190a16001600160a01b03166000818152600360205260408120805460ff191660019081179091556005805491820181559091527f036b6384b5eca791c62761152d0c79bb0604c104a5fb6f4eb0703f3154bb3db00180546001600160a01b0319169091179055565b6112446127bf565b6001600160a01b03811661128c576040805162461bcd60e51b815260206004820152600a60248201526906b7962657244414f20360b41b604482015290519081900360640190fd5b6008546001600160a01b0382811691161461137757600880546001600160a01b0319166001600160a01b03838116918217909255600a546040805163212ea89560e11b815260048101939093525192169163425d512a916024808201926020929091908290030181600087803b15801561130557600080fd5b505af1158015611319573d6000803e3d6000fd5b505050506040513d602081101561132f57600080fd5b505161133a57600080fd5b604080516001600160a01b038316815290517f677e91e921644d893d62ac7b02fd19999db0d3159dc3ed2b5b2243e808f3a80f9181900360200190a15b50565b6113826127bf565b6001600160a01b0381166113c7576040805162461bcd60e51b8152602060048201526007602482015266070726f787920360cc1b604482015290519081900360640190fd5b6001600160a01b0381166000908152600f602052604090205460ff1615611424576040805162461bcd60e51b815260206004820152600c60248201526b70726f78792065786973747360a01b604482015290519081900360640190fd5b600a54604080516307f442e160e01b81526001600160a01b03848116600483015260026024830152915191909216916307f442e19160448083019260209291908290030181600087803b15801561147a57600080fd5b505af115801561148e573d6000803e3d6000fd5b505050506040513d60208110156114a457600080fd5b50516114af57600080fd5b6001600160a01b0381166000818152600f6020908152604091829020805460ff19166001179055815192835290517f0b008ff10c7e378a96d6566635e1aa748886d16fb87659faee2aa20608fec8159281900390910190a150565b6115126127bf565b6001600160a01b03811661155b576040805162461bcd60e51b815260206004820152600b60248201526a04e65772061646d696e20360ac1b604482015290519081900360640190fd5b604080516001600160a01b038316815290517f3b81caf78fa51ecbc8acb482fd7012a277b428d9b80f9d156e8a54107496cc409181900360200190a1600180546001600160a01b0319166001600160a01b0392909216919091179055565b6115c16127bf565b801561171d5760075461010090046001600160a01b0316611618576040805162461bcd60e51b815260206004820152600c60248201526b066656548616e646c657220360a41b604482015290519081900360640190fd5b6009546001600160a01b0316611668576040805162461bcd60e51b815260206004820152601060248201526f06d61746368696e67456e67696e6520360841b604482015290519081900360640190fd5b600a60009054906101000a90046001600160a01b03166001600160a01b031663aa1da48a6040518163ffffffff1660e01b815260040160206040518083038186803b1580156116b657600080fd5b505afa1580156116ca573d6000803e3d6000fd5b505050506040513d60208110156116e057600080fd5b505161171d576040805162461bcd60e51b8152602060048201526007602482015266070726f787920360cc1b604482015290519081900360640190fd5b600e805460ff191682151517908190556040805160ff90921615158252517f8a846a525e22497042ee2f99423a8ff8bbb831d3ae5384692bf6040f591c1eba916020908290030190a150565b6001546001600160a01b031633146117b6576040805162461bcd60e51b815260206004820152600b60248201526a6e6f742070656e64696e6760a81b604482015290519081900360640190fd5b600154600054604080516001600160a01b03938416815292909116602083015280517f65da1cfc2c2e81576ad96afb24a581f8e109b7a403b35cbd3243a1c99efdb9ed9281900390910190a160018054600080546001600160a01b03199081166001600160a01b03841617909155169055565b6118316127bf565b6001600160a01b038116611876576040805162461bcd60e51b8152602060048201526007602482015266041646d696e20360cc1b604482015290519081900360640190fd5b604080516001600160a01b038316815290517f3b81caf78fa51ecbc8acb482fd7012a277b428d9b80f9d156e8a54107496cc409181900360200190a1600054604080516001600160a01b038085168252909216602083015280517f65da1cfc2c2e81576ad96afb24a581f8e109b7a403b35cbd3243a1c99efdb9ed9281900390910190a1600080546001600160a01b0319166001600160a01b0392909216919091179055565b60606005805480602002602001604051908101604052809291908181526020018280548015610e0a576020028201919060005260206000209081546001600160a01b03168152600190910190602001808311610dec575050505050905090565b6119846127bf565b6001600160a01b0381166000908152600f602052604090205460ff166119e3576040805162461bcd60e51b815260206004820152600f60248201526e1c1c9bde1e481b9bdd08199bdd5b99608a1b604482015290519081900360640190fd5b600a5460408051631007ab1960e31b81526001600160a01b0384811660048301529151919092169163803d58c89160248083019260209291908290030181600087803b158015611a3257600080fd5b505af1158015611a46573d6000803e3d6000fd5b505050506040513d6020811015611a5c57600080fd5b5051611a6757600080fd5b604080516001600160a01b038316815290517fbb9ee888852ae070b75270fa50ea2845ba32102d3a96842c7c416d12aad2f4879181900360200190a150565b6000806000611ab3612861565b600954604080516327e5e8d960e21b815290519395509193506001600160a01b031691639f97a36491600480820192602092909190829003018186803b158015611afc57600080fd5b505afa158015611b10573d6000803e3d6000fd5b505050506040513d6020811015611b2657600080fd5b50519250909192565b6000806000876001600160a01b0316896001600160a01b03161415611b5c57506000915081905080611c37565b611b6461599f565b611b8a60008b8b8b15611b77578b611b7a565b60015b6000600160ff1b6000808f61287f565b9050611b94612915565b60c0820152604080516020601f8801819004810282018101909252868152600091611bdb9184918a908a90819084018382808284376000920191909152506129b792505050565b8095508192505050611c0c826000015160400151836101200151846020015160c00151856040015160c00151612b4f565b9450611c3282600001516040015182846020015160c00151856040015160c00151612b4f565b925050505b96509650969350505050565b611c4b6127bf565b6001600160a01b03811660009081526002602052604090205460ff1615611cab576040805162461bcd60e51b815260206004820152600f60248201526e4f70657261746f722065786973747360881b604482015290519081900360640190fd5b600454603211611cf2576040805162461bcd60e51b815260206004820152600d60248201526c4d6178206f70657261746f727360981b604482015290519081900360640190fd5b604080516001600160a01b03831681526001602082015281517f091a7a4b85135fdd7e8dbc18b12fabe5cc191ea867aa3c2e1a24a102af61d58b929181900390910190a16001600160a01b03166000818152600260205260408120805460ff191660019081179091556004805491820181559091527f8a35acfbc15ff81a39ae7d344fd709f28e8600b4aa8c65c6b64bfe7fe36bd19b0180546001600160a01b0319169091179055565b600a546001600160a01b031681565b611db36127bf565b6001600160a01b038116611dfa576040805162461bcd60e51b8152602060048201526009602482015268073746f7261676520360bc1b604482015290519081900360640190fd5b600a546001600160a01b0382811691161461137757600a80546001600160a01b0319166001600160a01b0383811691821790925560095460408051630a0d2a8560e41b815260048101939093525192169163a0d2a850916024808201926020929091908290030181600087803b158015611e7357600080fd5b505af1158015611e87573d6000803e3d6000fd5b505050506040513d6020811015611e9d57600080fd5b5051611ea857600080fd5b604080516001600160a01b038316815290517fed8c790db7ddf303f576c18e6644ec19e7b39356088eeeeac11c95212c61f49a9181900360200190a150565b611eef6127bf565b6001600160a01b03811660009081526002602052604090205460ff16611f4b576040805162461bcd60e51b815260206004820152600c60248201526b2737ba1037b832b930ba37b960a11b604482015290519081900360640190fd5b6001600160a01b0381166000908152600260205260408120805460ff191690555b600454811015610b6f57816001600160a01b031660048281548110611f8d57fe5b6000918252602090912001546001600160a01b0316141561206657600480546000198101908110611fba57fe5b600091825260209091200154600480546001600160a01b039092169183908110611fe057fe5b600091825260209091200180546001600160a01b0319166001600160a01b039290921691909117905560048054600019019061201c908261597b565b50604080516001600160a01b03841681526000602082015281517f091a7a4b85135fdd7e8dbc18b12fabe5cc191ea867aa3c2e1a24a102af61d58b929181900390910190a1610b6f565b600101611f6c565b6120766127bf565b6001600160a01b0383166120c0576040805162461bcd60e51b815260206004820152600c60248201526b066656548616e646c657220360a41b604482015290519081900360640190fd5b6001600160a01b03821661210e576040805162461bcd60e51b815260206004820152601060248201526f06d61746368696e67456e67696e6520360841b604482015290519081900360640190fd5b6007546001600160a01b03848116610100909204161461218257600780546001600160a01b0385166101008102610100600160a81b03199092169190911790915560408051918252517fab9d6b7e6a08b170060612fe7982b02517c02c12c50e77db3efebf1f665d52e29181900360200190a15b6009546001600160a01b038381169116146121e957600980546001600160a01b0384166001600160a01b0319909116811790915560408051918252517f644c2d2aaa8e808edefc89717a4f4378151fe827df1e88497e166a6ed9652e899181900360200190a15b6001600160a01b0381161580159061220f5750600b546001600160a01b03828116911614155b1561226657600b80546001600160a01b0383166001600160a01b0319909116811790915560408051918252517f95ba6becebde78de944071b522d81414292f67e3d95db7d9df46bb8e8b3da8b89181900360200190a15b600a546040805163d8952a4960e01b81526001600160a01b03868116600483015285811660248301529151919092169163d8952a499160448083019260209291908290030181600087803b1580156122bd57600080fd5b505af11580156122d1573d6000803e3d6000fd5b505050506040513d60208110156122e757600080fd5b50516122f257600080fd5b505050565b6122ff6127bf565b600d82905560095460408051634dbf7ed960e11b81526004810184905290516001600160a01b0390921691639b7efdb2916024808201926020929091908290030181600087803b15801561235257600080fd5b505af1158015612366573d6000803e3d6000fd5b505050506040513d602081101561237c57600080fd5b505161238757600080fd5b600d54604080519182526020820183905280517fc1e6729d7fd9a615adc03ebe7d8ff15649d8eed7516bf6c30538a1e722bb19759281900390910190a15050565b60006123d261599f565b6123e38d8d8c8e8d8d8d8d8d61287f565b90506124258185858080601f016020809104026020016040519081016040528093929190818152602001838380828437600092019190915250612ce992505050565b9d9c50505050505050505050505050565b6008546001600160a01b031681565b61244d6127bf565b6040516000906001600160a01b0383169084908381818185875af1925050503d8060008114612498576040519150601f19603f3d011682016040523d82523d6000602084013e61249d565b606091505b50509050806124ab57600080fd5b604080518481526001600160a01b038416602082015281517fec47e7ed86c86774d1a72c19f35c639911393fe7c1a34031fdbd260890da90de929181900390910190a1505050565b6000806124fe612861565b9092509050438110801561251c57506008546001600160a01b031615155b156125a75760085460408051639833afaf60e01b815281516001600160a01b0390931692639833afaf926004808401939192918290030181600087803b15801561256557600080fd5b505af1158015612579573d6000803e3d6000fd5b505050506040513d604081101561258f57600080fd5b50805160209091015190925090506125a7818361337d565b5090565b60006125b561280d565b600a546040805163e02584bf60e01b81526001600160a01b03898116600483015288811660248301528715156044830152861515606483015285151560848301529151919092169163e02584bf9160a48083019260209291908290030181600087803b15801561262457600080fd5b505af1158015612638573d6000803e3d6000fd5b505050506040513d602081101561264e57600080fd5b505161265957600080fd5b83156126bc5760408051600080516020615ad083398151915281526001600160a01b038781166020830152841515828401529151918816917fadb5a4f14d89b3a5ffb3900ac1ea4574d991f93887f6199fabaf25393644e01c9181900360600190a25b82156127635781156126eb576126e66001600160a01b03861687600160ff1b63ffffffff61345116565b612706565b6127066001600160a01b03861687600063ffffffff61345116565b604080516001600160a01b038781168252600080516020615ad08339815191526020830152841515828401529151918816917fadb5a4f14d89b3a5ffb3900ac1ea4574d991f93887f6199fabaf25393644e01c9181900360600190a25b61276c8561357a565b50600195945050505050565b6010602052600090815260409020546001600160a01b031681565b6000546001600160a01b031681565b60006127ac61280d565b6127b7826000610ba7565b90505b919050565b6000546001600160a01b0316331461280b576040805162461bcd60e51b815260206004820152600a60248201526927b7363c9030b236b4b760b11b604482015290519081900360640190fd5b565b3360009081526002602052604090205460ff1661280b576040805162461bcd60e51b815260206004820152600d60248201526c27b7363c9037b832b930ba37b960991b604482015290519081900360640190fd5b600c5461ffff600160401b8204169167ffffffffffffffff90911690565b61288761599f565b80516001600160a01b03808c1690915281518a8216602090910152815160400188905281518982166060909101528151878216608090910152815160a001869052815160c001859052815190841660e0909101528051610100018290526128ed8961365e565b602082015160c001526128ff8861365e565b604082015160c001529998505050505050505050565b600080612920612861565b9092509050438110801561293e57506008546001600160a01b031615155b156125a7576008546040805163056f534b60e51b815281516001600160a01b039093169263adea696092600480840193919291829003018186803b15801561298557600080fd5b505afa158015612999573d6000803e3d6000fd5b505050506040513d60408110156129af57600080fd5b505192915050565b6000806129ea846000015160200151600080516020615ad083398151915286600001516040015187886020015188613713565b608086015260608501819052612a0557506000905080612b48565b8351610100015160608501516127109181029190910460a086018190526080860151011115612a6f576040805162461bcd60e51b8152602060048201526011602482015270666565732065786365656420747261646560781b604482015290519081900360640190fd5b60008460a0015185608001518660600151030390506000612aae600080516020615ad083398151915287600001516060015184898a604001518a613713565b60808801805182019052604088015160c001519195509150600090612ad99084908790601290612b4f565b90506000612afc886080015189606001510360128a6040015160c0015185613d55565b9050612b17886060015160128a6040015160c0015185613d55565b610120890152875160409081015160208a015160c090810151928b01510151612b41928491612b4f565b9450505050505b9250929050565b60006b204fce5e3e25026110000000851115612ba8576040805162461bcd60e51b8152602060048201526013602482015272737263416d6f756e74203e204d41585f51545960681b604482015290519081900360640190fd5b6b204fce5e3e25026110000000841115612c00576040805162461bcd60e51b815260206004820152601460248201527364657374416d6f756e74203e204d41585f51545960601b604482015290519081900360640190fd5b828210612c7c5760128383031115612c5a576040805162461bcd60e51b8152602060048201526018602482015277647374202d20737263203e204d41585f444543494d414c5360401b604482015290519081900360640190fd5b84838303600a0a02670de0b6b3a7640000850281612c7457fe5b0490506110dd565b60128284031115612ccf576040805162461bcd60e51b8152602060048201526018602482015277737263202d20647374203e204d41585f444543494d414c5360401b604482015290519081900360640190fd5b84828403600a0a670de0b6b3a764000086020281612c7457fe5b60075460009060ff16612d43576040805162461bcd60e51b815260206004820152601f60248201527f5265656e7472616e637947756172643a207265656e7472616e742063616c6c00604482015290519081900360640190fd5b6007805460ff19169055612d556124f3565b60c084018190528351612d6791613edc565b612da2576040805162461bcd60e51b81526020600482015260076024820152661a5b9d985b1a5960ca1b604482015290519081900360640190fd5b6000612dae84846129b7565b909250905080612dee576040805162461bcd60e51b815260206004820152600660248201526530207261746560d01b604482015290519081900360640190fd5b6a084595161401484a0000008110612e3f576040805162461bcd60e51b815260206004820152600f60248201526e72617465203e204d41585f5241544560881b604482015290519081900360640190fd5b835160c00151811015612e8b576040805162461bcd60e51b815260206004820152600f60248201526e72617465203c206d696e205261746560881b604482015290519081900360640190fd5b600b546001600160a01b0316156130a9576000600b60009054906101000a90046001600160a01b03166001600160a01b0316856000015160e0015186600001516020015187600001516060015188606001518960200151602001518a604001516020015160405160240180876001600160a01b03166001600160a01b03168152602001866001600160a01b03166001600160a01b03168152602001856001600160a01b03166001600160a01b031681526020018481526020018060200180602001838103835285818151815260200191508051906020019060200280838360005b83811015612f84578181015183820152602001612f6c565b50505050905001838103825284818151815260200191508051906020019060200280838360005b83811015612fc3578181015183820152602001612fab565b50505050905001985050505050505050506040516020818303038152906040526315fc3ba560e21b6001600160e01b0319166020820180516001600160e01b0383818316178352505050506040518082805190602001908083835b6020831061303d5780518252601f19909201916020918201910161301e565b6001836020036101000a0380198251168184511680821785525050505050509050019150506000604051808303816000865af19150503d806000811461309f576040519150601f19603f3d011682016040523d82523d6000602084013e6130a4565b606091505b505050505b835160a001516000908311156130f757845160a0015192506130ca85614317565b85516020810151604082015191519293506130e9929091908490614498565b6130f257600080fd5b6130ff565b508351604001515b61312785600001516020015182600080516020615ad083398151915230898a6060015161458b565b61313057600080fd5b61316c600080516020615ad08339815191528660a00151876080015188606001510303876000015160600151886000015160800151898861458b565b61317557600080fd5b61317e8561483d565b61318757600080fd5b8460000151600001516001600160a01b03167fedf58903c524babe394983a5f2a5e5dfb90cfa07664b571af169537a9c98f22486600001516020015187600001516060015184878a60000151608001518b606001518c608001518d60a001518e60200151602001518f60400151602001518f604051808c6001600160a01b03166001600160a01b031681526020018b6001600160a01b03166001600160a01b031681526020018a8152602001898152602001886001600160a01b03166001600160a01b03168152602001878152602001868152602001858152602001806020018060200180602001848103845287818151815260200191508051906020019060200280838360005b838110156132a757818101518382015260200161328f565b50505050905001848103835286818151815260200191508051906020019060200280838360005b838110156132e65781810151838201526020016132ce565b50505050905001848103825285818151815260200191508051906020019080838360005b8381101561332257818101518382015260200161330a565b50505050905090810190601f16801561334f5780820380516001836020036101000a031916815260200191505b509e50505050505050505050505050505060405180910390a250506007805460ff1916600117905592915050565b600160401b82106133c7576040805162461bcd60e51b815260206004820152600f60248201526e657870697279206f766572666c6f7760881b604482015290519081900360640190fd5b611388811061340f576040805162461bcd60e51b815260206004820152600f60248201526e66656573206578636565642042505360881b604482015290519081900360640190fd5b600c805461ffff909216600160401b0269ffff00000000000000001967ffffffffffffffff90941667ffffffffffffffff199093169290921792909216179055565b8015806134d7575060408051636eb1769f60e11b81523060048201526001600160a01b03848116602483015291519185169163dd62ed3e91604480820192602092909190829003018186803b1580156134a957600080fd5b505afa1580156134bd573d6000803e3d6000fd5b505050506040513d60208110156134d357600080fd5b5051155b613528576040805162461bcd60e51b815260206004820152601d60248201527f5361666545524332303a20617070726f7665206e6f6e2d3020746f2030000000604482015290519081900360640190fd5b604080516001600160a01b038416602482015260448082018490528251808303909101815260649091019091526020810180516001600160e01b031663095ea7b360e01b1790526122f29084906149df565b6001600160a01b0381166000908152600660205260409020541561359d57611377565b6001600160a01b038116600080516020615ad083398151915214156135dd576001600160a01b038116600090815260066020526040902060129055611377565b806001600160a01b031663313ce5676040518163ffffffff1660e01b815260040160206040518083038186803b15801561361657600080fd5b505afa15801561362a573d6000803e3d6000fd5b505050506040513d602081101561364057600080fd5b50516001600160a01b03821660009081526006602052604090205550565b60006001600160a01b038216600080516020615ad08339815191521415613687575060126127ba565b6001600160a01b038216600090815260066020526040902054806127b757826001600160a01b031663313ce5676040518163ffffffff1660e01b815260040160206040518083038186803b1580156136de57600080fd5b505afa1580156136f2573d6000803e3d6000fd5b505050506040513d602081101561370857600080fd5b505191506127ba9050565b600080866001600160a01b0316886001600160a01b0316141561373b57508490506000613d4a565b6009546000906001600160a01b0390811690632ea71287908b908b908216600080516020615ad08339815191521480159061378d57506001600160a01b038c16600080516020615ad083398151915214155b6040516001600160e01b031960e086901b1681526001600160a01b0380851660048301908152908416602483015282151560448301526080606483019081528b5160848401528b518c9360a40190602085019080838360005b838110156137fe5781810151838201526020016137e6565b50505050905090810190601f16801561382b5780820380516001836020036101000a031916815260200191505b509550505050505060006040518083038186803b15801561384b57600080fd5b505afa15801561385f573d6000803e3d6000fd5b505050506040513d6000823e601f3d908101601f19168201604052608081101561388857600080fd5b8101908080516040519392919084600160201b8211156138a757600080fd5b9083019060208201858111156138bc57600080fd5b82518660208202830111600160201b821117156138d857600080fd5b82525081516020918201928201910280838360005b838110156139055781810151838201526020016138ed565b5050505090500160405260200180516040519392919084600160201b82111561392d57600080fd5b90830190602082018581111561394257600080fd5b82518660208202830111600160201b8211171561395e57600080fd5b82525081516020918201928201910280838360005b8381101561398b578181015183820152602001613973565b5050505090500160405260200180516040519392919084600160201b8211156139b357600080fd5b9083019060208201858111156139c857600080fd5b82518660208202830111600160201b821117156139e457600080fd5b82525081516020918201928201910280838360005b83811015613a115781810151838201526020016139f9565b50505050919091016040525060209081015160608c019490945260808b018590528a0185905250509051915190925014613a84576040805162461bcd60e51b815260206004820152600f60248201526e6261642073706c697420617272617960881b604482015290519081900360640190fd5b84606001515185602001515114613ad2576040805162461bcd60e51b815260206004820152600d60248201526c6261642066656520617272617960981b604482015290519081900360640190fd5b6060613aea868b8b8b8b60c001518c60600151614b9d565b90506001826001811115613afa57fe5b1415613d36576060600960009054906101000a90046001600160a01b03166001600160a01b03166384d174bc8c8c8a60a00151868c604001516040518663ffffffff1660e01b815260040180866001600160a01b03166001600160a01b03168152602001856001600160a01b03166001600160a01b03168152602001806020018060200180602001848103845287818151815260200191508051906020019060200280838360005b83811015613bba578181015183820152602001613ba2565b50505050905001848103835286818151815260200191508051906020019060200280838360005b83811015613bf9578181015183820152602001613be1565b50505050905001848103825285818151815260200191508051906020019060200280838360005b83811015613c38578181015183820152602001613c20565b505050509050019850505050505050505060006040518083038186803b158015613c6157600080fd5b505afa158015613c75573d6000803e3d6000fd5b505050506040513d6000823e601f3d908101601f191682016040526020811015613c9e57600080fd5b8101908080516040519392919084600160201b821115613cbd57600080fd5b908301906020820185811115613cd257600080fd5b82518660208202830111600160201b82111715613cee57600080fd5b82525081516020918201928201910280838360005b83811015613d1b578181015183820152602001613d03565b505050509050016040525050509050613d348782614f40565b505b613d428a8a888a61529f565b909450925050505b965096945050505050565b60006b204fce5e3e25026110000000851115613dab576040805162461bcd60e51b815260206004820152601060248201526f737263517479203e204d41585f51545960801b604482015290519081900360640190fd5b6a084595161401484a000000821115613dfd576040805162461bcd60e51b815260206004820152600f60248201526e72617465203e204d41585f5241544560881b604482015290519081900360640190fd5b838310613e6f5760128484031115613e57576040805162461bcd60e51b8152602060048201526018602482015277647374202d20737263203e204d41585f444543494d414c5360401b604482015290519081900360640190fd5b670de0b6b3a7640000858302858503600a0a02612c74565b60128385031115613ec2576040805162461bcd60e51b8152602060048201526018602482015277737263202d20647374203e204d41585f444543494d414c5360401b604482015290519081900360640190fd5b828403600a0a670de0b6b3a76400000282860281612c7457fe5b600e5460009060ff16613f29576040805162461bcd60e51b815260206004820152601060248201526f1b995d1ddbdc9ac8191a5cd8589b195960821b604482015290519081900360640190fd5b336000908152600f602052604090205460ff16613f7a576040805162461bcd60e51b815260206004820152600a6024820152693130b21039b2b73232b960b11b604482015290519081900360640190fd5b600d543a1115613fbd576040805162461bcd60e51b815260206004820152600960248201526867617320707269636560b81b604482015290519081900360640190fd5b6b204fce5e3e2502611000000083604001511115614015576040805162461bcd60e51b815260206004820152601060248201526f737263416d74203e204d41585f51545960801b604482015290519081900360640190fd5b6040830151614056576040805162461bcd60e51b81526020600482015260086024820152670c081cdc98d05b5d60c21b604482015290519081900360640190fd5b60808301516001600160a01b03166140a2576040805162461bcd60e51b815260206004820152600a6024820152690646573742061646420360b41b604482015290519081900360640190fd5b82606001516001600160a01b031683602001516001600160a01b031614156140fe576040805162461bcd60e51b815260206004820152600a6024820152691cdc98c80f4819195cdd60b21b604482015290519081900360640190fd5b6127108361010001511061414c576040805162461bcd60e51b815260206004820152601060248201526f0e0d8c2e8ccdee4da8ccaca40d0d2ced60831b604482015290519081900360640190fd5b6127108283856101000151010110614197576040805162461bcd60e51b81526020600482015260096024820152680cccacae640d0d2ced60bb1b604482015290519081900360640190fd5b60208301516001600160a01b0316600080516020615ad083398151915214156142055782604001513414614200576040805162461bcd60e51b815260206004820152600b60248201526a626164204574682071747960a81b604482015290519081900360640190fd5b61430e565b3415614244576040805162461bcd60e51b81526020600482015260096024820152680457468206e6f7420360bc1b604482015290519081900360640190fd5b826040015183602001516001600160a01b03166370a08231306040518263ffffffff1660e01b815260040180826001600160a01b03166001600160a01b0316815260200191505060206040518083038186803b1580156142a357600080fd5b505afa1580156142b7573d6000803e3d6000fd5b505050506040513d60208110156142cd57600080fd5b5051101561430e576040805162461bcd60e51b81526020600482015260096024820152686e6f20746f6b656e7360b81b604482015290519081900360640190fd5b50600192915050565b80516060015160009081906001600160a01b0316600080516020615ad08339815191521461436f5760408084015160c0810151855160a00151928201516080909201516143689360129390916154ef565b9050614377565b50815160a001515b61271083600001516101000151028361010001518460c00151026127108002030361271080830202816143a657fe5b046060840181905261010084015160c085015161271092028290040204608084015282516101000151606084015161271091020460a08401528251602001516001600160a01b0316600080516020615ad08339815191521461443057602083015160c08101516060850151604083015160809093015161442993601292916154ef565b9150614438565b826060015191505b825160400151821115614492576040805162461bcd60e51b815260206004820152601b60248201527f61637475616c537263416d74203e20676976656e20737263416d740000000000604482015290519081900360640190fd5b50919050565b600083831015614580576001600160a01b038516600080516020615ad08339815191521415614564576040516000906001600160a01b03841690858703908381818185875af1925050503d806000811461450e576040519150601f19603f3d011682016040523d82523d6000602084013e614513565b606091505b505090508061455e576040805162461bcd60e51b815260206004820152601260248201527114d95b990818da185b99d94819985a5b195960721b604482015290519081900360640190fd5b50614580565b6145806001600160a01b0386168385870363ffffffff61557216565b506001949350505050565b6000846001600160a01b0316876001600160a01b0316141561465e576001600160a01b0384163014614656576040516000906001600160a01b0386169088908381818185875af1925050503d8060008114614602576040519150601f19603f3d011682016040523d82523d6000602084013e614607565b606091505b5050905080614654576040805162461bcd60e51b81526020600482015260146024820152731cd95b990819195cdd081c5d1e4819985a5b195960621b604482015290519081900360640190fd5b505b506001614833565b614666615a0b565b6001600160a01b038816600080516020615ad08339815191521461468e578360200151614694565b83604001515b9050600080805b83515181101561480057600060018560800151510382146146e0576127108b866080015184815181106146ca57fe5b602002602001015102816146da57fe5b046146e4565b828b035b9283019290506001600160a01b038c16600080516020615ad08339815191521461470f576000614711565b805b93508460000151828151811061472357fe5b60200260200101516001600160a01b0316636cf69811858e848e308b60400151898151811061474e57fe5b602090810291909101810151604080516001600160e01b031960e08b901b1681526001600160a01b039788166004820152602481019690965293861660448601529190941660648401526084830152600160a48301525160c4808301939282900301818588803b1580156147c157600080fd5b505af11580156147d5573d6000803e3d6000fd5b50505050506040513d60208110156147ec57600080fd5b50516147f757600080fd5b5060010161469b565b506001600160a01b038716301461482b5761482b6001600160a01b038916888763ffffffff61557216565b600193505050505b9695505050505050565b60008160e001516000148015614855575060a0820151155b15614862575060016127ba565b60608061486e846155c4565b60a0860151608080880151600754895160e00151604051637295fce360e01b81526001600160a01b0380831660448301526064820187905260048201958652885160848301528851989a509698509285019661010090920490951694637295fce39487948a948a948291602481019160a4909101906020808a01910280838360005b838110156149085781810151838201526020016148f0565b50505050905001838103825286818151815260200191508051906020019060200280838360005b8381101561494757818101518382015260200161492f565b5050505090500196505050505050506020604051808303818588803b15801561496f57600080fd5b505af1158015614983573d6000803e3d6000fd5b50505050506040513d602081101561499a57600080fd5b5051614580576040805162461bcd60e51b815260206004820152600f60248201526e1a185b991b19481999594819985a5b608a1b604482015290519081900360640190fd5b6149f1826001600160a01b0316615673565b614a42576040805162461bcd60e51b815260206004820152601c60248201527f5361666545524332303a2063616c6c206e6f6e2d636f6e747261637400000000604482015290519081900360640190fd5b60006060836001600160a01b0316836040518082805190602001908083835b60208310614a805780518252601f199092019160209182019101614a61565b6001836020036101000a0380198251168184511680821785525050505050509050019150506000604051808303816000865af19150503d8060008114614ae2576040519150601f19603f3d011682016040523d82523d6000602084013e614ae7565b606091505b509150915081614b3e576040805162461bcd60e51b815260206004820152601b60248201527f5361666545524332303a206c6f772d6c6576656c206661696c65640000000000604482015290519081900360640190fd5b805115614b9757808060200190516020811015614b5a57600080fd5b5051614b975760405162461bcd60e51b8152600401808060200182810382526021815260200180615aaf6021913960400191505060405180910390fd5b50505050565b60606000876020015151905080604051908082528060200260200182016040528015614bd3578160200160208202803883390190505b5060a0890152604080518281526020808402820101909152818015614c02578160200160208202803883390190505b50886040018190525080604051908082528060200260200182016040528015614c35578160200160208202803883390190505b508852604080518281526020808402820101909152818015614c61578160200160208202803883390190505b50915060005b81811015614f3457600089608001518281518110614c8157fe5b6020026020010151118015614caf575061271089608001518281518110614ca457fe5b602002602001015111155b614cf4576040805162461bcd60e51b8152602060048201526011602482015270696e76616c69642073706c69742062707360781b604482015290519081900360640190fd5b614d1489602001518281518110614d0757fe5b6020026020010151615679565b8951805183908110614d2257fe5b60200260200101906001600160a01b031690816001600160a01b03168152505061271089608001518281518110614d5557fe5b6020026020010151870281614d6657fe5b048960a001518281518110614d7757fe5b60200260200101818152505088606001518181518110614d9357fe5b602002602001015115614e38576001600160a01b038816600080516020615ad08339815191521415614e1e5760006127108a608001518381518110614dd457fe5b602002602001015161271088880281614de957fe5b040281614df257fe5b049050808a60a001518381518110614e0657fe5b60200260200101818151039150818152505050614e38565b84838281518110614e2b57fe5b6020026020010181815250505b8851805182908110614e4657fe5b60200260200101516001600160a01b0316637cd4427289898c60a001518581518110614e6e57fe5b6020026020010151436040518563ffffffff1660e01b815260040180856001600160a01b03166001600160a01b03168152602001846001600160a01b03166001600160a01b0316815260200183815260200182815260200194505050505060206040518083038186803b158015614ee457600080fd5b505afa158015614ef8573d6000803e3d6000fd5b505050506040513d6020811015614f0e57600080fd5b505160408a0151805183908110614f2157fe5b6020908102919091010152600101614c67565b50509695505050505050565b8051825151811115614f99576040805162461bcd60e51b815260206004820152601960248201527f746f6f2062696720726573657276652073656c656374696f6e00000000000000604482015290519081900360640190fd5b606081604051908082528060200260200182016040528015614fc5578160200160208202803883390190505b509050606082604051908082528060200260200182016040528015614ff4578160200160208202803883390190505b509050606083604051908082528060200260200182016040528015615023578160200160208202803883390190505b509050606084604051908082528060200260200182016040528015615052578160200160208202803883390190505b509050606085604051908082528060200260200182016040528015615081578160200160208202803883390190505b5090506060866040519080825280602002602001820160405280156150b0578160200160208202803883390190505b50905060005b878110156152715789600001518982815181106150cf57fe5b6020026020010151815181106150e157fe5b60200260200101518782815181106150f557fe5b60200260200101906001600160a01b031690816001600160a01b031681525050896020015189828151811061512657fe5b60200260200101518151811061513857fe5b602002602001015186828151811061514c57fe5b602002602001018181525050896080015189828151811061516957fe5b60200260200101518151811061517b57fe5b602002602001015185828151811061518f57fe5b60200260200101818152505089606001518982815181106151ac57fe5b6020026020010151815181106151be57fe5b60200260200101518482815181106151d257fe5b6020026020010190151590811515815250508960a001518982815181106151f557fe5b60200260200101518151811061520757fe5b602002602001015183828151811061521b57fe5b602002602001018181525050896040015189828151811061523857fe5b60200260200101518151811061524a57fe5b602002602001015182828151811061525e57fe5b60209081029190910101526001016150b6565b50948852602088019390935260808701919091526060860152604085019190915260a0909301929092525050565b600080808080805b87515181101561547d576000811180156152f85750876020015160018203815181106152cf57fe5b602002602001015160001c886020015182815181106152ea57fe5b602002602001015160001c11155b1561530e5750600094508493506154e692505050565b8760800151818151811061531e57fe5b6020026020010151840193506153ce8860a00151828151811061533d57fe5b6020026020010151600080516020615ad08339815191526001600160a01b03168960000151602001516001600160a01b03161461537e578960c00151615381565b60125b8951602001516001600160a01b0316600080516020615ad0833981519152146153ab5760126153b1565b8a60c001515b8b6040015185815181106153c157fe5b6020026020010151613d55565b86019550876060015181815181106153e257fe5b602002602001015115615475576001600160a01b038a16600080516020615ad08339815191521415615451576127108860800151828151811061542157fe5b60200260200101516127108960c001518a60600151028161543e57fe5b04028161544757fe5b048501945061546e565b8760800151818151811061546157fe5b6020026020010151820191505b6001909201915b6001016152a7565b5061271083146154975750600093508392506154e6915050565b60e0860180518301905261010086018051820190526001600160a01b038816600080516020615ad083398151915214156154e2576127108660c0015186830202816154de57fe5b0493505b5050505b94509492505050565b600080805b845181101561556757600060018551038214615530576127108786848151811061551a57fe5b6020026020010151028161552a57fe5b04615534565b8287035b9050808301925061555a818a8a89868151811061554d57fe5b60200260200101516156d8565b90930192506001016154f4565b505095945050505050565b604080516001600160a01b038416602482015260448082018490528251808303909101815260649091019091526020810180516001600160e01b031663a9059cbb60e01b1790526122f29084906149df565b6060808260e001516040519080825280602002602001820160405280156155f5578160200160208202803883390190505b5091508260e00151604051908082528060200260200182016040528015615626578160200160208202803883390190505b5090508260e001516000141561563b5761566e565b6000615653838386604001518488610100015161587a565b905061566b838386602001518488610100015161587a565b50505b915091565b3b151590565b6000818152601060205260409020546001600160a01b0316806127ba576040805162461bcd60e51b81526020600482015260126024820152711c995cd95c9d99481b9bdd081b1a5cdd195960721b604482015290519081900360640190fd5b60006b204fce5e3e2502611000000085111561572e576040805162461bcd60e51b815260206004820152601060248201526f647374517479203e204d41585f51545960801b604482015290519081900360640190fd5b6a084595161401484a000000821115615780576040805162461bcd60e51b815260206004820152600f60248201526e72617465203e204d41585f5241544560881b604482015290519081900360640190fd5b6000808486106157f757601285870311156157dd576040805162461bcd60e51b8152602060048201526018602482015277737263202d20647374203e204d41585f444543494d414c5360401b604482015290519081900360640190fd5b5050828403600a0a8502670de0b6b3a76400000282615860565b6012868603111561584a576040805162461bcd60e51b8152602060048201526018602482015277647374202d20737263203e204d41585f444543494d414c5360401b604482015290519081900360640190fd5b5050670de0b6b3a76400008502848403600a0a83025b806001828401038161586e57fe5b04979650505050505050565b600082815b856060015151811015615970578560600151818151811061589c57fe5b6020026020010151156159685760116000876000015183815181106158bd57fe5b60200260200101516001600160a01b03166001600160a01b0316815260200190815260200160002060009054906101000a90046001600160a01b031688838151811061590557fe5b60200260200101906001600160a01b031690816001600160a01b031681525050836127108760800151838151811061593957fe5b6020026020010151028161594957fe5b0487838151811061595657fe5b60209081029190910101526001909101905b60010161587f565b509695505050505050565b8154818355818111156122f2576000838152602090206122f2918101908301615a48565b6040518061016001604052806159b3615a62565b81526020016159c0615a0b565b81526020016159cd615a0b565b815260200160008152602001600081526020016000815260200160008152602001600081526020016000815260200160008152602001600081525090565b6040518060e00160405280606081526020016060815260200160608152602001606081526020016060815260200160608152602001600081525090565b610ba491905b808211156125a75760008155600101615a4e565b6040805161012081018252600080825260208201819052918101829052606081018290526080810182905260a0810182905260c0810182905260e081018290526101008101919091529056fe5361666545524332303a204552433230206f7065726174696f6e206661696c6564000000000000000000000000eeeeeeeeeeeeeeeeeeeeeeeeeeeeeeeeeeeeeeeea265627a7a723158206bb6a4b0089ecbefe5a99fc1aad596f085d870c9369b65878d72f6109aa788b164736f6c634300050b0032",
    "sourcePath": "/Users/anyhowclick/Desktop/Code/smart-contracts/contractsSol5/KyberNetwork.sol",
    "compiler": {
        "name": "solc",
        "version": "0.5.11+commit.c082d0b4"
    },
    "functionHashes": {
        "addAlerter(address)": "408ee7fe",
        "addKyberProxy(address)": "52dd35b9",
        "addOperator(address)": "9870d7fe",
        "addReserve(address,bytes32,uint8,address)": "3dfce895",
        "admin()": "f851a440",
        "claimAdmin()": "77f50f97",
        "enabled()": "238dafe0",
        "feeHandler()": "3c93adee",
        "getAlerters()": "7c423f54",
        "getAndUpdateNetworkFee()": "dbe2dc9b",
        "getExpectedRateWithHintAndFee(address,address,uint256,uint256,bytes)": "8ff68a80",
        "getNetworkData()": "8881654e",
        "getOperators()": "27a099d8",
        "kyberDAO()": "c5feb27f",
        "kyberStorage()": "9ced8aab",
        "listPairForReserve(address,address,bool,bool,bool)": "e02584bf",
        "matchingEngine()": "1c0edff2",
        "maxGasPrice()": "3de39c11",
        "pendingAdmin()": "26782247",
        "removeAlerter(address)": "01a12fd3",
        "removeKyberProxy(address)": "803d58c8",
        "removeOperator(address)": "ac8a584a",
        "removeReserve(address,uint256)": "249715b3",
        "reserveIdToAddress(bytes32)": "ef9285df",
        "reserveRebateWallet(address)": "022654b9",
        "rmReserve(address)": "fab4ec75",
        "setContracts(address,address,address)": "b3066d49",
        "setDAOContract(address)": "425d512a",
        "setEnable(bool)": "7726bed3",
        "setKyberStorage(address)": "a0d2a850",
        "setParams(uint256,uint256)": "c0324c77",
        "tradeWithHintAndFee(address,address,uint256,address,address,uint256,uint256,address,uint256,bytes)": "c43190f5",
        "transferAdmin(address)": "75829def",
        "transferAdminQuickly(address)": "7acc8678",
        "withdrawEther(uint256,address)": "ce56c454",
        "withdrawToken(address,uint256,address)": "3ccdbb28"
    },
    "gasEstimates": {
        "creation": {
            "codeDepositCost": "4666400",
            "executionCost": "infinite",
            "totalCost": "infinite"
        },
        "external": {
            "": "1651",
            "addAlerter(address)": "63238",
            "addKyberProxy(address)": "infinite",
            "addOperator(address)": "63193",
            "addReserve(address,bytes32,uint8,address)": "infinite",
            "admin()": "547",
            "claimAdmin()": "42743",
            "enabled()": "524",
            "feeHandler()": "560",
            "getAlerters()": "infinite",
            "getAndUpdateNetworkFee()": "infinite",
            "getExpectedRateWithHintAndFee(address,address,uint256,uint256,bytes)": "infinite",
            "getNetworkData()": "infinite",
            "getOperators()": "infinite",
            "kyberDAO()": "526",
            "kyberStorage()": "504",
            "listPairForReserve(address,address,bool,bool,bool)": "infinite",
            "matchingEngine()": "528",
            "maxGasPrice()": "444",
            "pendingAdmin()": "505",
            "removeAlerter(address)": "infinite",
            "removeKyberProxy(address)": "infinite",
            "removeOperator(address)": "infinite",
            "removeReserve(address,uint256)": "infinite",
            "reserveIdToAddress(bytes32)": "633",
            "reserveRebateWallet(address)": "632",
            "rmReserve(address)": "infinite",
            "setContracts(address,address,address)": "infinite",
            "setDAOContract(address)": "infinite",
            "setEnable(bool)": "infinite",
            "setKyberStorage(address)": "infinite",
            "setParams(uint256,uint256)": "infinite",
            "tradeWithHintAndFee(address,address,uint256,address,address,uint256,uint256,address,uint256,bytes)": "infinite",
            "transferAdmin(address)": "21917",
            "transferAdminQuickly(address)": "23544",
            "withdrawEther(uint256,address)": "infinite",
            "withdrawToken(address,uint256,address)": "infinite"
        },
        "internal": {
            "calcDestQtyAndMatchReserves(contract IERC20,contract IERC20,uint256,struct KyberNetwork.TradeData memory,struct KyberNetwork.TradingReserves memory,bytes memory)": "infinite",
            "calcRatesAndAmounts(struct KyberNetwork.TradeData memory,bytes memory)": "infinite",
            "calcSrcAmountsAndGetRates(struct KyberNetwork.TradingReserves memory,contract IERC20,contract IERC20,uint256,uint256,uint256)": "infinite",
            "calcTradeSrcAmount(uint256,uint256,uint256,uint256[] memory,uint256[] memory)": "infinite",
            "calcTradeSrcAmountFromDest(struct KyberNetwork.TradeData memory)": "infinite",
            "calculateRebateSplitPerWallet(struct KyberNetwork.TradeData memory)": "infinite",
            "convertReserveIdToAddress(bytes32)": "infinite",
            "doReserveTrades(contract IERC20,uint256,contract IERC20,address payable,struct KyberNetwork.TradeData memory,uint256)": "infinite",
            "getNetworkFee()": "infinite",
            "handleChange(contract IERC20,uint256,uint256,address payable)": "infinite",
            "handleFees(struct KyberNetwork.TradeData memory)": "infinite",
            "initTradeInput(address payable,contract IERC20,contract IERC20,uint256,address payable,uint256,uint256,address payable,uint256)": "infinite",
            "populateRebateWalletList(address[] memory,uint256[] memory,struct KyberNetwork.TradingReserves memory,uint256,uint256)": "infinite",
            "readNetworkFeeData()": "253",
            "trade(struct KyberNetwork.TradeData memory,bytes memory)": "infinite",
            "updateNetworkFee(uint256,uint256)": "infinite",
            "updateReservesData(struct KyberNetwork.TradingReserves memory,uint256[] memory)": "infinite",
            "validateTradeCalcDestQtyAndFeeData(contract IERC20,contract IERC20,struct KyberNetwork.TradingReserves memory,struct KyberNetwork.TradeData memory)": "infinite",
            "verifyTradeInputValid(struct KyberNetwork.TradeInput memory,uint256)": "infinite"
        }
    }
}